{
  "contractName": "MedicalRecords",
  "abi": [
    {
      "anonymous": false,
      "inputs": [
        {
          "indexed": true,
          "internalType": "address",
          "name": "sender",
          "type": "address"
        },
        {
          "indexed": false,
          "internalType": "uint256",
          "name": "id",
          "type": "uint256"
        },
        {
          "indexed": false,
          "internalType": "string",
          "name": "patientName",
          "type": "string"
        },
        {
          "indexed": false,
          "internalType": "string",
          "name": "recordData",
          "type": "string"
        },
        {
          "indexed": false,
          "internalType": "uint256",
          "name": "timestamp",
          "type": "uint256"
        }
      ],
      "name": "RecordAdded",
      "type": "event"
    },
    {
      "inputs": [
        {
          "internalType": "uint256",
          "name": "",
          "type": "uint256"
        }
      ],
      "name": "records",
      "outputs": [
        {
          "internalType": "address",
          "name": "sender",
          "type": "address"
        },
        {
          "internalType": "string",
          "name": "patientName",
          "type": "string"
        },
        {
          "internalType": "string",
          "name": "recordData",
          "type": "string"
        },
        {
          "internalType": "uint256",
          "name": "timestamp",
          "type": "uint256"
        }
      ],
      "stateMutability": "view",
      "type": "function",
      "constant": true
    },
    {
      "inputs": [
        {
          "internalType": "string",
          "name": "_patientName",
          "type": "string"
        },
        {
          "internalType": "string",
          "name": "_recordData",
          "type": "string"
        }
      ],
      "name": "addRecord",
      "outputs": [],
      "stateMutability": "nonpayable",
      "type": "function"
    }
  ],
  "bytecode": "0x608060405234801561001057600080fd5b50610838806100206000396000f3fe608060405234801561001057600080fd5b50600436106100365760003560e01c8063344610671461003b578063c95962481461006e575b600080fd5b610055600480360381019061005091906104eb565b61008a565b604051610065949392919061056f565b60405180910390f35b61008860048036038101906100839190610473565b6101fa565b005b6000818154811061009a57600080fd5b90600052602060002090600402016000915090508060000160009054906101000a900473ffffffffffffffffffffffffffffffffffffffff16908060010180546100e390610705565b80601f016020809104026020016040519081016040528092919081815260200182805461010f90610705565b801561015c5780601f106101315761010080835404028352916020019161015c565b820191906000526020600020905b81548152906001019060200180831161013f57829003601f168201915b50505050509080600201805461017190610705565b80601f016020809104026020016040519081016040528092919081815260200182805461019d90610705565b80156101ea5780601f106101bf576101008083540402835291602001916101ea565b820191906000526020600020905b8154815290600101906020018083116101cd57829003601f168201915b5050505050908060030154905084565b600080805490509050600060405180608001604052803373ffffffffffffffffffffffffffffffffffffffff16815260200185815260200184815260200142815250908060018154018082558091505060019003906000526020600020906004020160009091909190915060008201518160000160006101000a81548173ffffffffffffffffffffffffffffffffffffffff021916908373ffffffffffffffffffffffffffffffffffffffff16021790555060208201518160010190805190602001906102c892919061034b565b5060408201518160020190805190602001906102e592919061034b565b506060820151816003015550503373ffffffffffffffffffffffffffffffffffffffff167f2dfdb2dd57a6325c234b3623d29789d0de37bb6e59f1d890fd3899090d3ac19f8285854260405161033e94939291906105c2565b60405180910390a2505050565b82805461035790610705565b90600052602060002090601f01602090048101928261037957600085556103c0565b82601f1061039257805160ff19168380011785556103c0565b828001600101855582156103c0579182015b828111156103bf5782518255916020019190600101906103a4565b5b5090506103cd91906103d1565b5090565b5b808211156103ea5760008160009055506001016103d2565b5090565b60006104016103fc8461063a565b610615565b90508281526020810184848401111561041d5761041c6107cb565b5b6104288482856106c3565b509392505050565b600082601f830112610445576104446107c6565b5b81356104558482602086016103ee565b91505092915050565b60008135905061046d816107eb565b92915050565b6000806040838503121561048a576104896107d5565b5b600083013567ffffffffffffffff8111156104a8576104a76107d0565b5b6104b485828601610430565b925050602083013567ffffffffffffffff8111156104d5576104d46107d0565b5b6104e185828601610430565b9150509250929050565b600060208284031215610501576105006107d5565b5b600061050f8482850161045e565b91505092915050565b61052181610687565b82525050565b60006105328261066b565b61053c8185610676565b935061054c8185602086016106d2565b610555816107da565b840191505092915050565b610569816106b9565b82525050565b60006080820190506105846000830187610518565b81810360208301526105968186610527565b905081810360408301526105aa8185610527565b90506105b96060830184610560565b95945050505050565b60006080820190506105d76000830187610560565b81810360208301526105e98186610527565b905081810360408301526105fd8185610527565b905061060c6060830184610560565b95945050505050565b600061061f610630565b905061062b8282610737565b919050565b6000604051905090565b600067ffffffffffffffff82111561065557610654610797565b5b61065e826107da565b9050602081019050919050565b600081519050919050565b600082825260208201905092915050565b600061069282610699565b9050919050565b600073ffffffffffffffffffffffffffffffffffffffff82169050919050565b6000819050919050565b82818337600083830152505050565b60005b838110156106f05780820151818401526020810190506106d5565b838111156106ff576000848401525b50505050565b6000600282049050600182168061071d57607f821691505b6020821081141561073157610730610768565b5b50919050565b610740826107da565b810181811067ffffffffffffffff8211171561075f5761075e610797565b5b80604052505050565b7f4e487b7100000000000000000000000000000000000000000000000000000000600052602260045260246000fd5b7f4e487b7100000000000000000000000000000000000000000000000000000000600052604160045260246000fd5b600080fd5b600080fd5b600080fd5b600080fd5b6000601f19601f8301169050919050565b6107f4816106b9565b81146107ff57600080fd5b5056fea264697066735822122053d106f2cc029a05241b5eb76527adc4156ff9dbd5a60b353414e31b031d5b8f64736f6c63430008070033",
  "immutableReferences": {},
  "source": "// SPDX-License-Identifier: MIT\npragma solidity ^0.8.0;\n\ncontract MedicalRecords {\n    struct Record {\n        address sender;\n        string patientName;\n        string recordData;\n        uint256 timestamp;\n    }\n\n    Record[] public records;\n\n    // Event untuk mencatat rekam medis yang baru\n    event RecordAdded(address indexed sender, uint256 id, string patientName, string recordData, uint256 timestamp);\n\n    // Fungsi untuk menambah rekam medis\n    function addRecord(string memory _patientName, string memory _recordData) public {\n        uint256 id = records.length;\n        records.push(Record(msg.sender, _patientName, _recordData, block.timestamp));\n        emit RecordAdded(msg.sender, id, _patientName, _recordData, block.timestamp);\n    }\n}\n\n",
  "sourcePath": "/home/hansdimas/medical-records/contracts/MedicalRecords.sol",
  "compiler": {
    "name": "solc",
    "version": "0.8.7+commit.e28d00a7.Emscripten.clang"
  },
  "schemaVersion": "3.4.4",
  "updatedAt": "2025-05-13T15:33:42.027Z",
  "networkType": "ethereum",
  "devdoc": {
    "kind": "dev",
    "methods": {},
    "version": 1
  },
  "userdoc": {
    "kind": "user",
    "methods": {},
    "version": 1
  }
}